:020000040000FA
:042000000DEF10F0E0
:022008001000C6
:082018001000700ED36E9268F7
:10202000936A59EC10F067EC10F0030E00604DEF6E
:1020300010F0020E006041EF10F0010E006035EF6D
:1020400010F0E00E016031EF10F0700E01602DEF26
:1020500010F0000E8A6E13EF10F0010E8A6E13EF6F
:1020600010F0030E8A6E13EF10F0C00E01603DEF0A
:1020700010F0070E8A6E13EF10F00F0E8A6E13EF3A
:1020800010F0A00E016049EF10F01F0E8A6E13EFE2
:1020900010F03F0E8A6E13EF10F0B60E016055EF90
:1020A00010F07F0E8A6E13EF10F0FF0E8A6E13EFA2
:1020B00010F02F0E0F015B6F976A906A916AC16AE8
:1020C000BE0EC06EC36AC46A010EC26E1200030E59
:1020D0000F01C26E0000C2B26AEF10F0C4CF00F070
:0620E000C3CF01F0120065
:020000040030CA
:0100000023DC
:0100010028D6
:010002004FAE
:010003003CC0
:01000500D129
:010006008178
:010008000FE8
:01000900C036
:01000A000FE6
:01000B00E014
:01000C000FE4
:01000D0040B2
:00000001FF
