:020000040000FA
:042000000DEF10F0E0
:022008001000C6
:0820180010009268936A57EC76
:1020200010F05DEC10F0030E00604BEF10F0020EAC
:1020300000603FEF10F0010E006033EF10F0E00E93
:1020400001602FEF10F0700E01602BEF10F0000E0A
:102050008A6E11EF10F0010E8A6E11EF10F0030E70
:102060008A6E11EF10F0C00E01603BEF10F0070E0A
:102070008A6E11EF10F00F0E8A6E11EF10F0A00EA5
:10208000016047EF10F01F0E8A6E11EF10F03F0E47
:102090008A6E11EF10F0B60E016053EF10F07F0E54
:1020A0008A6E11EF10F0FF0E8A6E11EF10F00E0E17
:1020B0000F01C10EBE0EC06E1200030E0F01C26EE4
:1020C0000000C2B260EF10F0C4CF00F0C3CF01F047
:0220D0001200FC
:020000040030CA
:010000002CD3
:010001004EB0
:010002002AD3
:010003001EDE
:010005008179
:010006008178
:010008000FE8
:01000900C036
:01000A000FE6
:01000B00E014
:01000C000FE4
:01000D0040B2
:00000001FF
